:020000002528B1
:100008007E1480310B1F09280A2823284E01961ECA
:100018000E280F2817288C1E12281328172881311C
:100028005421803123289A1C1A281B282328901C25
:100038001E281F28232881318721803123287E10FC
:1000480009002628F001F101F201F301F401400151
:10005800A701A801A901AA01AB01AC017E104001CA
:10006800C8284001260803193A283B2873288131FB
:10007800DC21803176084001AC007508AB00813185
:10008800F221803140012B08CE3EF700FF302C3D95
:10009800F8007808803AF90080307902031D562864
:1000A80001307702031C59285A28632828307A021D
:1000B800031C5F2860286B280130FA026B28C930BE
:1000C8007A020318682869286B280130FA0740016A
:1000D80098167A0845018D008131EF218031730827
:1000E800031D772878287C281930F3000130F400A4
:1000F8000130F3020800B0280130F200C7280130AF
:100108008131C121803132304001A7000030A80080
:100118000230F200C72827082804031D94289528D0
:10012800C72800308131C1218031B6304001A70095
:100138000330A8000330F200C7288031F92080314D
:10014800400127082804031DAA28AB28C728013026
:100158008131C1218031872872084001AE00AF018A
:100168002F08003A0319B928C7282E08003A03199E
:100178008028013A03198328033A03198F28013A82
:100188000319A128C728080081311421803135308E
:100198004001AD000030AE008131D0218031EC301B
:1001A8004001AD000130AE008131CA2180310430F8
:1001B800813178218031C13052018C008B170B17A7
:1001C80000308131C12180318131E92180317408C9
:1001D8000319EF28F028EB28F401813196218031AA
:1001E80080317F208031EB28252840010C1DFD2817
:1001F800FE2813298131E62180318B137E01BF014E
:100208003E154E011616630000007E013E114E0198
:1002180016127E01BF018B178131E9218031080058
:100228008131B821813181316821813181312A219F
:1002380081318131402181318131AD21813181315B
:10024800E22181318131A22181310800FB304B014B
:100258009D009C0170309F001D08F1001C08F000F3
:10026800F6304001A2000130A3004E018C12961610
:1002780010304B019E000800013045019000083005
:100288008F0091019F308D008C01F5304001A00056
:100298000130A1004E0190109A1445018E0108000A
:1002A80071084B019D0070089C004001220823043E
:1002B80003195F296029652923088A0022080A0092
:1002C80081314E018C1208004001980114309200CF
:1002D80010307E01B800B901BA01BB010830BC007A
:1002E800BD01BE01BF0108004001AE002E08AD00EF
:1002F800AD0DAD0D41011D0840012D0603392D0638
:1003080041019D00080040012008210403198D299E
:100318008E29932921088A0020080A0081314E017C
:100328009010080040012708280403199C299D29DA
:10033800A1290130A7020030A83B08004E010C108B
:1003480000304001AD000030AE008131D62181314E
:100358000800A33041019E009B019C019F010130D0
:100368009D004E010D100800603051018D008F0175
:10037800910106309300920108004001AD008B13F3
:100388002D08A6003230FA008B17080040012E080D
:10039800A1002D08A000080040012E08A3002D0888
:1003A800A200080040012E08A5002D08A40008009E
:1003B80041011C08F6001B08F5000800C030520176
:1003C8008C0008004B019E1308004B019E17080083
:1003D80040019812080045018E17080041019D143C
:0603E800080008000800F7
:020000040001F9
:0A000E008C3FFF3F9F3FFF3FFF3F85
:00000001FF
