:020000002528B1
:100008007E1480310B1F09280A2823284E01961ECA
:100018000E280F2817288C1E12281328172881311C
:100028006921803123289A1C1A281B282328901C10
:100038001E281F28232881319C21803123287E10E7
:1000480009002628F001F101F201F301F401F5019C
:100058004001A801A901AA01AB01AC01AD017E10C4
:100068004001D1286E280330F3000130F2008528C2
:10007800730803194028412843280130F30201304E
:100088008131D621803132304001A8000030A900EA
:100098000230F200852828082904031D5428552811
:1000A800852800308131D6218031B6304001A80042
:1000B8000330A9000330F200852881310221803104
:1000C800400128082904031D6A286B288528013067
:1000D800F200852872084001AF00B0013008003AEC
:1000E8000319772885282F08003A03193728013A79
:1000F80003193C28033A03194F28013A03196128C8
:10010800852808004001260803198B288C28C52853
:100118008131F121803177084001AD007608AC00CB
:1001280082310A22803140012C08263EF800FD3039
:100138002D3DF9007908803AFA0080307A02031DD3
:10014800A72801307802031CAA28AB28B52850300C
:1001580040012702031CB128B228BE280130A7029B
:10016800BE28C930400127020318BB28BC28BE2876
:100178000130A7079816270845018D00823107220C
:1001880080317408031DC928CA28CE281930F40004
:100198000130F5000130F402080081312921803155
:1001A80086304001AE000030AF008131E52180315A
:1001B80004304001AE000230AF008131DF218031D0
:1001C800043081318D218031C13052018C008B1770
:1001D8000B1700308131D6218031823101228031E4
:1001E80075080319F828F928F428F5018131AB219D
:1001F8008031803136208031F428252840010C1DBB
:100208000629072928297308031D0B290C292829E1
:100218008131FE2181318131FB2181318B134001F4
:100228000C087E01BF013E154E0116166300000042
:100238007E013E114E0116127E01BF018B178231DD
:10024800012281310330F30008008131CD21813151
:1002580081317D21813181313F21813181315521A8
:1002680081318131C22181318131F721813181315F
:10027800B72181310800FB304B019D009C01703093
:100288009F001D08F1001C08F0000E304001A2007C
:100298000230A3004E018C12961610304B019E00BE
:1002A800080001304501900008308F0091019F300F
:1002B8008D008C010D304001A0000230A1004E01DC
:1002C80090109A1445018E01080071084B019D0099
:1002D80070089C0040012208230403197429752919
:1002E8007A2923088A0022080A0081314E018C12DB
:1002F8000800400198011430920010307E01B800C7
:10030800B901BA01BB010830BC00BD01BE01BF0183
:1003180008004001AF002F08AE00AE0DAE0D410140
:100328001D0840012E0603392E0641019D000800D4
:100338004001200821040319A229A329A82921087A
:100348008A0020080A0081314E01901008004001FF
:10035800280829040319B129B229B6290130A802AD
:100368000030A93B08004E010C1000304001AE00DF
:100378000030AF008131EB2181310800A330410109
:100388009E009B019C019F0101309D004E010D10B4
:100398000800603051018D008F01910106309300F3
:1003A800920108004001AE008B132E08A60096307B
:1003B800A7008B17080040012F08A1002E08A000F5
:1003C800080040012F08A3002E08A20008004001E1
:1003D8002F08A5002E08A400080041011C08F700FA
:1003E8001B08F6000800C03052018C0008004501C7
:1003F8008E1308004B019E1308004B019E1708003E
:1004080040019812080045018E17080041019D140B
:06041800080008000800C6
:020000040001F9
:0A000E008C173F3F9F3FFF3FFF3F6D
:00000001FF
