:020000001428C2
:100008007E1480314E01961E0A280B2812288C1E59
:100018000E280F28122881310B2180317E1009000B
:100028001528F001F101F201F301F401F501F601DF
:10003800F701F801F9017E1040018F285528400189
:100048009812181240019816C830F0000030F100DC
:100058000130F8006B2870087104031D3428352816
:100068006B28400118163230F0000030F1000230E1
:10007800F8006B2870087104031D432844286B2876
:10008800400118129812D630F0000630F100033003
:10009800F8006B2870087104031D532854286B2836
:1000A8002C287808FA00FB017B08003A03195D2820
:1000B80023287A08003A03192628013A03192F2819
:1000C800033A03193E28013A03194E282328080049
:1000D80072087304031D712872288E28033078066D
:1000E800031D772878288E286030F200EA30F30064
:1000F8000130F6070030F73D76087704031D8528A0
:1001080086288E28813101218031630000008031EA
:10011800E920803108008131152180318031DB20D0
:1001280080318031CD2080318B170B176030F20081
:10013800EA30F30079080319A228A3289E28F901B8
:100148008031AF20803180312220803180316C2095
:1001580080319E281428FC017C35703E860087017A
:10016800160001040319B928BA28C4287C35703E42
:10017800860087010130810241310030813B7F31A7
:100188000130FC0702307C02031CCB28CC28B028A5
:10019800080072304B019F00FC309D007B309C00B2
:1001A8004E018C12961690304B019E0008004001BB
:1001B8009801043092007E01B8010130B900BA01FB
:1001C8003730BB003F30BC0008007E013E104E01B6
:1001D80016127E01BF018B17813129218031F6016A
:1001E800F701F8010800623051018D008F0191017B
:1001F800023093009001920108008131262181315B
:100208008B137E01BF013E144E01161608004E01E5
:100218008C12FC304B019D007B309C000130F900B2
:10022800080051018C0181311E2181318031F72074
:10023800813108004F0196019701980199019A01AF
:100248009B0108004B019E1308004B019E170800F4
:020000040001F9
:08000000FF3FFF3FFF3FFF3F00
:0A000E00EC173F3F9F3FFF3FFF3F0D
:00000001FF
