:020000001428C2
:100008007E1480314E01961E0A280B2812288C1E59
:100018000E280F28122881311B2180317E100900FB
:100028001528F001F101F201F301F401F501F601DF
:10003800F701F801F9017E1040019728592840017D
:1000480098121812400198160A30F0000030F1009A
:10005800F901F90A6F2870087104031D342835283E
:100068006F28400118163230F0000030F1000230DD
:10007800F9006F2870087104031D432844286F286D
:100088004001181298129430F0000730F100033044
:10009800F9006F2880317020803170087104031DC9
:1000A800562857286F28F9016F287908FA00FB01AC
:1000B8007B08003A0319612823287A08003A0319B3
:1000C8002628013A03192F28033A03193E28013A32
:1000D80003194E282328080072087304031D752885
:1000E800762888286030F200EA30F3000130F607FD
:1000F8000030F73D5A3076067704031D842885289A
:1001080088288031D820803140010C1D8C288D280A
:10011800962874087504031D922893289628803120
:10012800D820803108008131252180318131032197
:1001380080318031F52080318B170B176030F20049
:10014800EA30F3008830F4001330F500780803191A
:10015800AE28AF28AA28F8018031B8208031803134
:1001680022208031AA281428FC017C35703E8600A4
:100178008701160001040319C228C328CD287C353D
:10018800703E860087010130810241310030813B99
:100198007F310130FA007A08FC0703307C02031C27
:1001A800D628D728B92808008131362180318B1309
:1001B8007E01BF013E154E011616630000007E0148
:1001C8003E114E0116127E01BF018B17F601F70191
:1001D800F9018131392180318830F4001330F5007C
:1001E800080072304B019F00FC309D007B309C0062
:1001F8004E018C12961690304B019E00080040016B
:100208009801043092007E01B8010430B900BA01A7
:100218003730BB003F30BC000800623051018D0010
:100228008F019101023093009001920108004E0164
:100238008C12FC304B019D007B309C000130F80093
:10024800080051018C0181312E2181318131112128
:10025800813108004F0196019701980199019A018F
:100268009B0108004B019E1308004B019E170800D4
:020000040001F9
:08000000FF3FFF3FFF3FFF3F00
:0A000E00EC173F3F9F3FFF3FFF3F0D
:00000001FF
