:020000040000FA
:020000001428C2
:100008007E1480314E01961E0A280B2812288C1E59
:100018000E280F28122881313C2180317E100900DA
:100028001528F001F101F201F301F401F501F601DF
:10003800F701F8014001A001A1017E104001D2287A
:100048006F284001181118129812400118153C30F9
:10005800F0000030F100F601F60A882870087104F3
:10006800031D3728382888284001181118163C30F5
:10007800F0000030F1000230FA007A08F600882813
:1000880070087104031D49284A288828400118125D
:1000980098163C30F0000030F1000330FA007A087E
:1000A800F600882870087104031D5B285C288828DE
:1000B800400198122230F0000B30F1000430FA00B1
:1000C8007A08F600882870087104031D6C286D28CA
:1000D8008828F60188287608FA00FB017B08003A90
:1000E8000319772825287A08003A03192928013A9C
:1000F80003193228033A03194428013A03195628E8
:10010800073A031967282528080072087304031D95
:100118008E288F28D12804307606031D9428952828
:10012800D1286030F200EA30F3000130F4070030E3
:10013800F53D40010C18A128A228AE284B30A0009C
:100148000030A1007708031DAA28AB28B828F401BD
:10015800F501B8280530A0000030A1007708031980
:10016800B628B728B828AB2803100C1C0314003095
:1001780003180130F70075082106031DC528740807
:100188002006031DC828C928D12881315221803171
:100198006300000081312E218031080081315C210B
:1001A80080318131202180318131122180318B17BA
:1001B8000B176030F200EA30F30078080319E528DD
:1001C800E628E128F8018031F220803180312420AE
:1001D8008031803189208031E1281428FC017C3568
:1001E800703E86008701160001040319FC28FD28CB
:1001F80007297C35703E8600870101308102413134
:100208000030813B7F310130FA007A08FC07023068
:100218007C02031C10291129F328080072304B01B5
:100228009F00FC309D007B309C004E018C1296167E
:1002380090304B019E000800400198010130920067
:100248007E01B8010130B900BA013730BB003F3038
:10025800BC0008007E013E104E0116127E01BF014F
:100268008B17813170218131F401F501F601080005
:100278004E018C12FC304B019D007B309C000130FC
:10028800F9007908F8000800623051018D008F01EB
:1002980091010230930090019201080081316D2193
:1002A80081318B137E01BF013E144E0116160800E2
:1002B80051018C01813165218131813148218131A0
:1002C80008004F0196019701980199019A019B0135
:0E02D80008004B019E1308004B019E17080002
:020000040001F9
:0A000E00EC173F3F9F3FFF3FFF3F0D
:00000001FF
