:020000001428C2
:100008007E1480314E01961E0A280B2812288C1E59
:100018000E280F28122881310A2180317E1009000C
:100028001528F001F101F201F301F401F501F601DF
:10003800F7017E1040018E285428400198121812AA
:10004800400198160A30F0000030F1000130F70046
:100058006A2870087104031D322833286A28400171
:1000680018163230F0000030F1000230F7006A282C
:1000780070087104031D412842286A28400118129B
:1000880098129430F0000730F1000330F7006A2826
:1000980070087104031D512852286A28F7016A283C
:1000A8007708F800F9017908003A03195C28212833
:1000B8007808003A03192428013A03192D28033A2D
:1000C80003193C28013A03194C2821280800720812
:1000D8007304031D702871288D2803307706031DCB
:1000E800762877288D286030F200EA30F300013056
:1000F800F4070030F53D74037504031D8428852832
:100108008D28813100218031630000008031E82092
:10011800803108008131142180318031DA2080312A
:100128008031CC2080318B170B176030F200EA3019
:10013800F30076080319A128A2289D28F60180312A
:10014800AE20803180312020803180316B20803199
:100158009D281428FA017A35703E8600870116001A
:1001680001040319B828B928C3287A35703E8600D7
:1001780087010130810241310030813B7F310130FC
:10018800FA0702307A02031CCA28CB28AF280800D5
:1001980072304B019F00FC309D007B309C004E016B
:1001A8008C12961690304B019E0008004001980171
:1001B800043092007E01B8010430B900BA0137302A
:1001C800BB003F30BC0008007E013E114E011612F4
:1001D8007E01BF018B17813128218031F401F5019F
:1001E800F7010800623051018D008F019101023042
:1001F80093009001920108008131252181318B13F0
:100208007E01BF013E154E01161608004E018C12E4
:10021800FC304B019D007B309C000130F60008004B
:1002280051018C0181311D2181318031F6208131CC
:1002380008004F0196019701980199019A019B01C5
:0E02480008004B019E1308004B019E17080092
:020000040001F9
:08000000FF3FFF3FFF3FFF3F00
:0A000E00EC173F3F9F3FFF3FFF3F0D
:00000001FF
