:020000002528B1
:100008007E1480310B1F09280A2823284E01961ECA
:100018000E280F2817288C1E12281328172881311C
:100028003521803123289A1C1A281B282328901C44
:100038001E281F28232881316821803123287E101B
:1000480009002628F001F101F201F301F401400151
:10005800A701A801A901AA01AB01AC017E104001CA
:10006800C4284001260803193A283B2873288131FF
:10007800BD21803176084001AC007508AB008131A4
:10008800D021803140012B08263EF700FD302C3D61
:10009800F8007808803AF90080307902031D562864
:1000A80001307702031C59285A28632850307A02F5
:1000B800031C5F2860286B280130FA026B28F13096
:1000C8007A020318682869286B280130FA0740016A
:1000D80098167A0845018D008131CD218031730849
:1000E800031D772878287C281930F3000130F400A4
:1000F8000130F3020800AC280130F200C3280130B7
:100108008131A221803132304001A7000030A8009F
:100118000230F200C32827082804031D94289528D4
:10012800C32800308131A2218031B6304001A700B8
:100138000330A8000330F200C32827082804031D51
:10014800A628A728C32801308131A2218031872819
:1001580072084001AE00AF012F08003A0319B52814
:10016800C3282E08003A03198028013A0319832866
:10017800033A03198F28013A0319A128C328080054
:100188008031F520803135304001AD000030AE00BF
:100198008131B1218031CA304001AD000130AE005B
:1001A8008131AB2180310430813159218031C13016
:1001B80052018C008B170B1700308131A22180313E
:1001C8008131C721803174080319EB28EC28E7280E
:1001D800F40181317721803180317F208031E72817
:1001E800252881319921803181314921803181311E
:1001F8000B21803181312121803181318E21803163
:100208008131C32180318131832180310800FB3065
:100218004B019D009C0170309F001D08F1001C08D7
:10022800F000D4304001A2000130A3004E018C122E
:10023800961610304B019E000800013045019000D1
:1002480008308F0091019F308D008C01D330400120
:10025800A0000130A1004E0190109A1445018E01B2
:10026800080071084B019D0070089C00400122089D
:100278002304031940294129462923088A00220812
:100288000A0081314E018C12080040019801143097
:10029800920010307E01B800B901BA01BB010830E4
:1002A800BC00BD01BE01BF0108004001AE002E0820
:1002B800AD00AD0DAD0D41011D0840012D060339FE
:1002C8002D0641019D000800400120082104031962
:1002D8006E296F29742921088A0020080A008131B3
:1002E8004E019010080040012708280403197D29B1
:1002F8007E2982290130A7020030A83B08004E0160
:100308000C1000304001AD000030AE008131B72143
:1003180081310800A33041019E009B019C019F018F
:1003280001309D004E010D100800603051018D0014
:100338008F01910106309300920108004001AD0041
:100348008B132D08A600A030FA008B170800400177
:100358002E08A1002D08A000080040012E08A300C7
:100368002D08A200080040012E08A5002D08A400B1
:10037800080041011C08F6001B08F5000800C03001
:1003880052018C0008004B019E170800400198128A
:10039800080045018E17080041019D140800080057
:0203A80008004B
:020000040001F9
:0A000E008C3FFF3F9F3FFF3FFF3F85
:00000001FF
