:020000001828BE
:100008007E1480310B1F09280A2816284E01961ED7
:100018000E280F2816288C1E12281328162881311E
:10002800A32180317E1009001928823112228031E3
:10003800FD00823110228031A400823111228031EA
:10004800A500F001F101F201F301F401F501F60157
:10005800F701F801F901FA017E1040011D297D28F8
:100068007D080319382839283B280130FD02400152
:100078002508F1002408F0000130F60096288131A7
:100088004B21803170087104031D4B284C28962899
:100098000130F9003230F0000030F1000230F60093
:1000A800962870087104031D5A285B289628F901C0
:1000B8002C30F0000130F1000330F600962870086B
:1000C8007104031D6828692896280130F800323029
:1000D800F0000030F1000430F60096287008710432
:1000E800031D772878289628F801F6019628F60146
:1000F80096287608FB00FC017C08003A031985283D
:100108007B287B08003A03193428013A031943284D
:10011800033A03195528013A03196328073A0319C2
:1001280072287B28D0304001A4000730A5000800C1
:10013800C9287D080319A128A228DC2840010C1D24
:10014800A628A728DC280530FD000130F70001307B
:10015800F500DC2877080319B228B328BA2840012B
:100168000C19B728B828DC28F701DC2840010C1D39
:10017800BE28BF28DC287D080319C328C428DC282A
:100188000230F500DC28F501DC287508FB00FC01CD
:100198007C08003A0319D128C7287B08003A0319BC
:1001A8009D28013A0319AE28033A0319C428C72821
:1001B80008007908031DE128E228E4284001181204
:1001C8007808031DE828E928002940019812002929
:1001D8007408031DF028F128F5288131C9218031E0
:1001E8001329823103228031132902307402031843
:1001F800FE28FF28F528F1287508FB00FC017C087B
:10020800003A0319082913297B08003A0319EC2836
:10021800013A0319F928033A0319F128132901307F
:10022800F40703307406031D1A291B291C29F4013D
:1002380008008131D82181310D30FB000230FC00EB
:100248008131F72181318B170B1782310A228131D5
:100258007A080319302931292C2940019814FA0108
:1002680070087104031939293A293E290130F0022E
:100278000030F13B8031DD20813180319C2081319B
:10028800803133208131400198102C2918284001F1
:100298000C1D4F29502975297D08031D54295529FE
:1002A80075298231072281318B1340010C087E01A8
:1002B800BF013E154E011616630000007E013E1177
:1002C8004E0116127E01BF018B1782310A2281313D
:1002D8000530FD00F701F4304001A4000130A5000D
:1002E800F5010800FC304B019D0018309C0070306F
:1002F8009F001D08F3001C08F20013304001A00005
:100308000230A1004E018C12961690304B019E00CF
:10031800080076340134003400340A3402340734D7
:100328000234003400340034003400340034003423
:10033800003400340034F7340134003400347308D6
:100348004B019D0072089C004001200821040319FC
:10035800AE29AF29B42921088A0020080A00813172
:100368004E018C12080040019801053092000130BE
:100378007E01B8000430B900BA013730BB003F3005
:10038800BC00BD01BE01BF01080079080319CD29D1
:10039800CE29D0294001181678080319D429D5295F
:1003A800D7294001981608008131EF218131813128
:1003B800B72181318131762181318131E521813146
:1003C80008004E010C100030FB000030FC008131A9
:1003D800FD2181310800603051018D008F019101AC
:1003E8009301920108007C084001A1007B08A0004D
:1003F80008007C084001A3007B08A2000800400117
:100408001812981208004B019E1308004B019E1702
:1004180008000130FA000800F434013406340800FA
:020000040001F9
:0A000E008C173F2F9F3FFF3FFF3F7D
:00000001FF
