:020000001828BE
:100008007E1480310B1F09280A2816284E01961ED7
:100018000E280F2816288C1E12281328162880311F
:10002800DA2080317E1009001928F001F101F2016F
:10003800F301F401F501F601F7017E1040017D2876
:100048006328D030F2000730F3000130F6007C2836
:1000580072087304031D312832287C2840011816C1
:100068002830F2000030F3000230F6007C287208D5
:100078007304031D402841287C284001181264306D
:10008800F2000030F3000330F6007C287208730495
:10009800031D4F2850287C28400198165030F20044
:1000A8000030F3000430F6007C2872087304031D46
:1000B8005E285F287C2840019812F6017C28760883
:1000C800FC00FD017D08003A03196B2861287C08B3
:1000D800003A03192528013A03192C28033A031971
:1000E8003B28013A03194A28073A03195928612875
:1000F80008008031FF2080312C30FC000130FD00E9
:1001080081311F2180318B170B17813129218031D3
:1001180077080319902891288C28F7018031C52089
:1001280080318031242080318C281828B034003464
:1001380000340034293401340034003400340034ED
:100148000034003400340034003400340034003407
:100158001F3401340034003483304B019D009C016E
:1001680070309F001D08F5001C08F4002F30F800BF
:100178000130F9004E018C12961690304B019E000A
:100188000800720873040319CA28CB28CF28013045
:10019800F2020030F33B700871040319D428D52803
:1001A800D9280130F0020030F13B080075084B01F6
:1001B8009D0074089C00780879040319E428E52850
:1001C800EA2879088A0078080A0080314E018C12E2
:1001D8000800400198010130920001307E01B8000A
:1001E8000430B900BA013730BB003F30BC00BD0154
:1001F800BE01BF0108008131162180318031ED2018
:1002080080318031B020803181310C21803108006B
:100218004E010C100030FC000030FD00813124211B
:1002280081310800603051018D008F019101063045
:100238009300920108007D08F9007C08F800080086
:100248007D08FB007C08FA0008004B019E17080097
:080258000130F7000800080066
:020000040001F9
:0A000E008C1FFF3F9F3FFF3FFF3FA5
:00000001FF
