:020000001828BE
:100008007E1480310B1F09280A2816284E01961ED7
:100018000E280F2816288C1E12281328162881311E
:10002800572180317E10090019288131B82180318B
:10003800FD00F001F101F201F301F401F501F6010F
:10004800F701F801F901FA017E104001F6287A2833
:100058007D0803193028312833280130FD02D030BB
:10006800F2000730F3000130F70093288031D220E6
:10007800803172087304031D4228432893284001E5
:1000880018167908FB00FC017B08F2007C08F300D5
:100098000230F700932872087304031D542855286A
:1000A8009328400118122C30F2000130F30003307D
:1000B800F700932872087304031D632864289328A3
:1000C800400198167808FB00FC017B08F2007C08C8
:1000D800F3000430F700932872087304031D752891
:1000E8007628932840019812F70193287708FB0097
:1000F800FC017C08003A0319822878287B08003A1A
:1001080003192C28013A03193A28033A03194F28EE
:10011800013A03195E28073A03197028782808005D
:10012800AC280130F600BF287D0803199C289D28BB
:10013800BF2840010C1DA128A228BF280530FD00BA
:100148000230F600BF280230F600BF28F601BF28AB
:100158007608FB00FC017C08003A0319B428AA2899
:100168007B08003A03199528013A03199828033A9D
:100178000319A728AA287608AC3E84008130031802
:10018800013E85000008F9007608A93E8400813008
:100198000318013E85000008F800080040010C1D06
:1001A800D628D728F5287D08031DDB28DC28F52864
:1001B8008131AF2180318B1340010C087E01BF01D2
:1001C8003E154E011616630000007E013E114E01D9
:1001D80016127E01BF018B178131B22180310530A3
:1001E800FD00080081317D218031B530FB000130F0
:1001F800FC0081319D2180318B170B178131B22191
:1002080080317A08031909290A290529FA01813157
:100218004221803180319420803180312B208031FF
:10022800052918282C34013400340034B234013440
:10023800AF34013400340034003400340034003466
:1002480000340034003400349D3401340034003468
:1002580083304B019D009C0170309F001D08F50004
:100268001C08F400B9304001A0000130A1004E0183
:100278008C12961690304B019E0008007208730489
:100288000319472948294C290130F2020030F33B71
:100298007008710403195129522956290130F002B6
:1002A8000030F13B080075084B019D0074089C0064
:1002B80040012008210403196229632968292108BB
:1002C8008A0020080A0081314E018C120800400182
:1002D80098010530920001307E01B8000430B90061
:1002E800BA013730BB003F30BC00BD01BE01BF01C1
:1002F800080081319421813181316B218131813133
:100308002C21813181318A21813108004E010C1064
:100318000030FB000030FC008131A321813108004E
:10032800603051018D008F019101063093009201D8
:1003380008007C084001A1007B08A00008007C0898
:100348004001A3007B08A200080000340A3450349E
:1003580000340A3450344B019E1308004B019E1799
:0C03680008000130FA000800063408000C
:020000040001F9
:0A000E008C173F2F9F3FFF3FFF3F7D
:00000001FF
