:020000001828BE
:100008007E1480310B1F09280A2816284E01961ED7
:100018000E280F2816288C1E12281328162881311E
:100028000D2180317E100900192881316721803126
:10003800FC00F001F101F201F301F401F501F60110
:10004800F7017E104001AF2871287C0803192D287C
:100058002E2830280130FC02D030F2000730F3009F
:100068000130F6008A2880318B20803172087304B1
:10007800031D3F2840288A28400118162830F2001E
:100088000030F3000230F6008A2872087304031D5A
:100098004E284F288A28400118126430F200003098
:1000A800F3000330F6008A2872087304031D5D28E4
:1000B8005E288A28400198165030F2000030F3007C
:1000C8000430F6008A2872087304031D6C286D2812
:1000D8008A2840019812F6018A287608FA00FB015E
:1000E8007B08003A031979286F287A08003A03191F
:1000F8002928013A03193728033A03194928013AEC
:1001080003195828073A031967286F28080040017F
:100118000C1D8F289028AE287C08031D942895284C
:10012800AE2881315E2180318B1340010C087E019D
:10013800BF013E154E011616630000007E013E11F8
:100148004E0116127E01BF018B178131612180316A
:100158000330FC0008008131332180316430FA001B
:100168000130FB008131532180318B170B1781310E
:100178006121803177080319C228C328BE28F701F6
:100188008031F8208031803128208031BE2818281D
:10019800E234003400340034613401345E34013414
:1001A80000340034003400340034003400340034A7
:1001B80000340034533401340034003483304B01AC
:1001C8009D009C0170309F001D08F5001C08F4007C
:1001D80068304001A0000130A1004E018C12961633
:1001E80090304B019E000800720873040319FD2823
:1001F800FE2802290130F2020030F33B7008710436
:100208000319072908290C290130F0020030F13BB5
:10021800080075084B019D0074089C0040012008E7
:1002280021040319182919291E2921088A002008E0
:100238000A0081314E018C120800400198010530F6
:10024800920001307E01B8000430B900BA0137309D
:10025800BB003F30BC00BD01BE01BF0108008131B9
:100268004A2181318131212181318031E22081315E
:1002780081314021813108004E010C100030FA0014
:100288000030FB0081315921813108006030510173
:100298008D008F01910106309300920108007B08C0
:1002A8004001A1007A08A00008007B08F9007A083C
:1002B800F80008004B019E1308004B019E17080028
:0A02C8000130F700080003340800BD
:020000040001F9
:0A000E008C173F2F9F3FFF3FFF3F7D
:00000001FF
