:020000001828BE
:100008007E1480310B1F09280A2816284E01961ED7
:100018000E280F2816288C1E12281328162880311F
:100028006B2080317E1009001928F001F101F201DE
:10003800F301F401F501F601F701F801F9017E1069
:1000480040012628803199208031A530FC000030FD
:10005800FD008031A020803114304001920003104F
:10006800981E0314031839283C28400198163E2886
:100078004001981279080319422843283328981612
:100088001816981218120310981E031403184D28F6
:10009800502840019816522840019812F901332837
:1000A800182800340034003400340034003400349C
:1000B8000034003400340034003400340034003498
:1000C800003400340034A03400340034003475089F
:1000D8004B019D0074089C007A087B04031975285D
:1000E80076287B287B088A007A080A0080314E012E
:1000F8008C120800400198010130920001307E0105
:10010800B8000430B900BA013730BB003F30BC003A
:10011800BD01BE01BF010800603051018D008F0193
:1001280091010630930092010800803190208031BF
:1001380080317E20803108007D08FB007C08FA00B1
:0A01480008000130F900080008006B
:020000040001F9
:0A000E008F1FFF3F9F3FFF3FFF3FA2
:00000001FF
