:020000001828BE
:100008007E1480310B1F09280A2816284E01961ED7
:100018000E280F2816288C1E12281328162881311E
:100028009E2180317E100900192882310E228031EC
:10003800FD0082310C228031A40082310D228031F2
:10004800A500F001F101F201F301F401F501F60157
:10005800F701F801F901FA017E10400148297D28CD
:100068007D080319382839283B280130FD02400152
:100078002508F1002408F0000130F60096288131A7
:100088001D21803170087104031D4B284C289628C7
:100098000130F9003230F0000030F1000230F60093
:1000A800962870087104031D5A285B289628F901C0
:1000B8002C30F0000130F1000330F600962870086B
:1000C8007104031D6828692896280130F800323029
:1000D800F0000030F1000430F60096287008710432
:1000E800031D772878289628F801F6019628F60146
:1000F80096287608FB00FC017C08003A031985283D
:100108007B287B08003A03193428013A031943284D
:10011800033A03195528013A03196328073A0319C2
:1001280072287B28D0304001A4000730A5000800C1
:10013800C9287D080319A128A228DC2840010C1D24
:10014800A628A728DC280530FD000130F70001307B
:10015800F500DC2877080319B228B328BA2840012B
:100168000C19B728B828DC28F701DC2840010C1D39
:10017800BE28BF28DC287D080319C328C428DC282A
:100188000230F500DC28F501DC287508FB00FC01CD
:100198007C08003A0319D128C7287B08003A0319BC
:1001A8009D28013A0319AE28033A0319C428C72821
:1001B80008007908031DE128E228E4284001181204
:1001C8007808031DE828E928002940019812002929
:1001D8007408031DF028F128F5288131C4218031E5
:1001E80013298131FF218031132902307402031849
:1001F800FE28FF28F528F1287508FB00FC017C087B
:10020800003A0319082913297B08003A0319EC2836
:10021800013A0319F928033A0319F128132901307F
:10022800F40703307406031D1A291B291C29F4013D
:10023800080040010C1D2129222947297D08031D9A
:100248002629272947298231032281318B1340012E
:100258000C087E01BF013E154E0116166300000012
:100268007E013E114E0116127E01BF018B178231AD
:10027800062281310530FD00F701F4304001A40069
:100288000130A500F50108008131D3218131093001
:10029800FB000230FC008131F32181318B170B17F1
:1002A8008231062281317A0803195B295C29572992
:1002B800FA0170087104031962296329672901305A
:1002C800F0020030F13B8031DD20813180319C200B
:1002D80081318031332081315729182888340134FD
:1002E8000034003406340234033402340034003459
:1002F8000034003400340034003400340034003456
:10030800F33401340034003483304B019D009C01E8
:1003180070309F001D08F3001C08F2000F304001E8
:10032800A0000230A1004E018C12961690304B01AD
:100338009E00080073084B019D0072089C00400154
:10034800200821040319A929AA29AF2921088A000C
:1003580020080A0081314E018C12080040019801E2
:100368000530920001307E01B8000430B900BA01AE
:100378003730BB003F30BC00BD01BE01BF010800E3
:1003880079080319C829C929CB2940011816780802
:100398000319CF29D029D2294001981608008131A4
:1003A800EA2181318131B221813181318821813144
:1003B8008131E021813108004E010C100030FB0032
:1003C8000030FC008131F921813108006030510191
:1003D8008D008F01910106309300920108007C087E
:1003E8004001A1007B08A00008007C084001A30090
:1003F8007B08A200080040011812981208004B015F
:100408009E1308004B019E1708000130FA000800EF
:08041800F4340134063408003D
:020000040001F9
:0A000E008C173F2F9F3FFF3FFF3F7D
:00000001FF
